{
  "contractName": "COTDAO",
  "abi": [
    {
      "constant": false,
      "inputs": [],
      "name": "renounceOwnership",
      "outputs": [],
      "payable": false,
      "stateMutability": "nonpayable",
      "type": "function"
    },
    {
      "constant": true,
      "inputs": [],
      "name": "owner",
      "outputs": [
        {
          "name": "",
          "type": "address"
        }
      ],
      "payable": false,
      "stateMutability": "view",
      "type": "function"
    },
    {
      "constant": false,
      "inputs": [
        {
          "name": "_newOwner",
          "type": "address"
        }
      ],
      "name": "transferOwnership",
      "outputs": [],
      "payable": false,
      "stateMutability": "nonpayable",
      "type": "function"
    },
    {
      "inputs": [
        {
          "name": "_token",
          "type": "address"
        },
        {
          "name": "_limit",
          "type": "uint256"
        },
        {
          "name": "_openingTime",
          "type": "uint256"
        }
      ],
      "payable": false,
      "stateMutability": "nonpayable",
      "type": "constructor"
    },
    {
      "anonymous": false,
      "inputs": [
        {
          "indexed": true,
          "name": "previousOwner",
          "type": "address"
        }
      ],
      "name": "OwnershipRenounced",
      "type": "event"
    },
    {
      "anonymous": false,
      "inputs": [
        {
          "indexed": true,
          "name": "previousOwner",
          "type": "address"
        },
        {
          "indexed": true,
          "name": "newOwner",
          "type": "address"
        }
      ],
      "name": "OwnershipTransferred",
      "type": "event"
    },
    {
      "constant": false,
      "inputs": [
        {
          "name": "_beneficiary",
          "type": "address"
        },
        {
          "name": "_tokenAmount",
          "type": "uint256"
        }
      ],
      "name": "MintLimit",
      "outputs": [],
      "payable": false,
      "stateMutability": "nonpayable",
      "type": "function"
    },
    {
      "constant": false,
      "inputs": [
        {
          "name": "_beneficiary",
          "type": "address"
        }
      ],
      "name": "MintPercent",
      "outputs": [],
      "payable": false,
      "stateMutability": "nonpayable",
      "type": "function"
    },
    {
      "constant": false,
      "inputs": [
        {
          "name": "_newOwner",
          "type": "address"
        }
      ],
      "name": "ChangeOwnerDAO",
      "outputs": [],
      "payable": false,
      "stateMutability": "nonpayable",
      "type": "function"
    },
    {
      "constant": false,
      "inputs": [],
      "name": "pauseDAO",
      "outputs": [],
      "payable": false,
      "stateMutability": "nonpayable",
      "type": "function"
    },
    {
      "constant": false,
      "inputs": [],
      "name": "unpauseDAO",
      "outputs": [],
      "payable": false,
      "stateMutability": "nonpayable",
      "type": "function"
    }
  ],
  "bytecode": "0x608060405234801561001057600080fd5b506040516060806108d283398101604090815281516020830151919092015160008054600160a060020a03191633179055600160a060020a038316151561005657600080fd5b60018054600160a060020a031916600160a060020a0394909416939093179092556002556003556108468061008c6000396000f3006080604052600436106100745763ffffffff60e060020a6000350416634b6e4a478114610079578063715018a61461009c578063788d2556146100b15780638da5cb5b146100d55780639612a76614610106578063992f41901461011b578063b38435cc1461013c578063f2fde38b14610151575b600080fd5b34801561008557600080fd5b5061009a600160a060020a0360043516610172565b005b3480156100a857600080fd5b5061009a6102aa565b3480156100bd57600080fd5b5061009a600160a060020a0360043516602435610316565b3480156100e157600080fd5b506100ea610517565b60408051600160a060020a039092168252519081900360200190f35b34801561011257600080fd5b5061009a610526565b34801561012757600080fd5b5061009a600160a060020a03600435166105aa565b34801561014857600080fd5b5061009a6106f4565b34801561015d57600080fd5b5061009a600160a060020a036004351661075e565b6102026002600160009054906101000a9004600160a060020a0316600160a060020a03166318160ddd6040518163ffffffff1660e060020a028152600401602060405180830381600087803b1580156101ca57600080fd5b505af11580156101de573d6000803e3d6000fd5b505050506040513d60208110156101f457600080fd5b50519063ffffffff61077516565b600154604080517f70a082310000000000000000000000000000000000000000000000000000000081523360048201529051600160a060020a03909216916370a08231916024808201926020929091908290030181600087803b15801561026857600080fd5b505af115801561027c573d6000803e3d6000fd5b505050506040513d602081101561029257600080fd5b50511161029e57600080fd5b6102a78161078a565b50565b600054600160a060020a031633146102c157600080fd5b60008054604051600160a060020a03909116917ff8df31144d9c2f0f6b59d69b8b98abd5459d07f2742c4df920b25aae33c6482091a26000805473ffffffffffffffffffffffffffffffffffffffff19169055565b600054600160a060020a0316331461032d57600080fd5b600254600160009054906101000a9004600160a060020a0316600160a060020a03166318160ddd6040518163ffffffff1660e060020a028152600401602060405180830381600087803b15801561038357600080fd5b505af1158015610397573d6000803e3d6000fd5b505050506040513d60208110156103ad57600080fd5b5051106103b957600080fd5b600254600154604080517f18160ddd000000000000000000000000000000000000000000000000000000008152905161045692600160a060020a0316916318160ddd9160048083019260209291908290030181600087803b15801561041d57600080fd5b505af1158015610431573d6000803e3d6000fd5b505050506040513d602081101561044757600080fd5b5051839063ffffffff61080716565b1115610460575060005b6000811161046d57600080fd5b600154604080517f40c10f19000000000000000000000000000000000000000000000000000000008152600160a060020a03858116600483015260248201859052915191909216916340c10f199160448083019260209291908290030181600087803b1580156104dc57600080fd5b505af11580156104f0573d6000803e3d6000fd5b505050506040513d602081101561050657600080fd5b5051151561051357600080fd5b5050565b600054600160a060020a031681565b600054600160a060020a0316331461053d57600080fd5b600160009054906101000a9004600160a060020a0316600160a060020a0316633f4ba83a6040518163ffffffff1660e060020a028152600401600060405180830381600087803b15801561059057600080fd5b505af11580156105a4573d6000803e3d6000fd5b50505050565b600054600160a060020a031633146105c157600080fd5b6003544210156105d057600080fd5b600154604080517f18160ddd0000000000000000000000000000000000000000000000000000000081529051600160a060020a03909216916340c10f1991849161065391600a916106479160649188916318160ddd9160048083019260209291908290030181600087803b1580156101ca57600080fd5b9063ffffffff61077516565b6040518363ffffffff1660e060020a0281526004018083600160a060020a0316600160a060020a0316815260200182815260200192505050602060405180830381600087803b1580156106a557600080fd5b505af11580156106b9573d6000803e3d6000fd5b505050506040513d60208110156106cf57600080fd5b505115156106dc57600080fd5b6106ee42610e1063ffffffff61080716565b60035550565b600054600160a060020a0316331461070b57600080fd5b600160009054906101000a9004600160a060020a0316600160a060020a0316638456cb596040518163ffffffff1660e060020a028152600401600060405180830381600087803b15801561059057600080fd5b600054600160a060020a0316331461029e57600080fd5b6000818381151561078257fe5b049392505050565b600160a060020a038116151561079f57600080fd5b60008054604051600160a060020a03808516939216917f8be0079c531659141344cd1fd0a4f28419497f9722a3daafe3b4186f6b6457e091a36000805473ffffffffffffffffffffffffffffffffffffffff1916600160a060020a0392909216919091179055565b8181018281101561081457fe5b929150505600a165627a7a72305820b77afdbcabbd1e635ba69e0adaf044cd61278ef041da95322bde6eeddb8bc5b10029",
  "source": "pragma solidity ^0.4.24;\r\n\r\nimport \"openzeppelin-solidity/contracts/token/ERC20/MintableToken.sol\";\r\nimport \"openzeppelin-solidity/contracts/token/ERC20/ERC20.sol\";\r\nimport \"openzeppelin-solidity/contracts/ownership/Ownable.sol\";\r\nimport \"openzeppelin-solidity/contracts/math/SafeMath.sol\";\r\nimport \"openzeppelin-solidity/contracts/token/ERC20/PausableToken.sol\";\r\n\r\ncontract COTDAO is Ownable{\r\n  using SafeMath for uint256;\r\n\r\n  ERC20 private token;\r\n  uint256 private limit;\r\n  uint256 private openingTime;\r\n\r\n  constructor(\r\n    ERC20 _token,\r\n    uint256 _limit,\r\n    uint256 _openingTime\r\n    )\r\n    public {\r\n    require(_token != address(0));\r\n    token = _token;\r\n    limit = _limit;\r\n    openingTime = _openingTime;\r\n  }\r\n\r\n  modifier onlyWhenOpen {\r\n    require(block.timestamp >= openingTime);\r\n    _;\r\n  }\r\n\r\n /*\r\n    Owner can mint new Tokens up to a certain limit\r\n */\r\n  function MintLimit(\r\n    address _beneficiary,\r\n    uint256 _tokenAmount\r\n  )\r\n    public\r\n    onlyOwner()\r\n  {\r\n  require(token.totalSupply() < limit);\r\n\r\n  if(_tokenAmount.add(token.totalSupply()) > limit ){\r\n    _tokenAmount = 0;\r\n  }\r\n  require(_tokenAmount > 0);\r\n  require(MintableToken(address(token)).mint(_beneficiary, _tokenAmount));\r\n  }\r\n\r\n  /*\r\n    Owner can mint 5% from totalSuply once a year\r\n  */\r\n\r\n  function MintPercent(\r\n    address _beneficiary\r\n  )\r\n    public\r\n    onlyOwner()\r\n    onlyWhenOpen()\r\n  {\r\n  require(MintableToken(address(token)).mint(_beneficiary, token.totalSupply().div(100).div(10)));\r\n  // Update time\r\n  //openingTime = now.add(7 days);\r\n  // Test time\r\n  openingTime = now.add(1 hours);\r\n  }\r\n\r\n  /*\r\n   address with 51% balance can change Owner DAO\r\n  */\r\n\r\n  function ChangeOwnerDAO(\r\n    address _newOwner\r\n  )\r\n    public\r\n  {\r\n  require(token.balanceOf(msg.sender) > token.totalSupply().div(2));\r\n  super._transferOwnership(_newOwner);\r\n  }\r\n\r\n  /*\r\n    owner DAO can pause Token\r\n    only through contract DAO\r\n  */\r\n\r\n  function pauseDAO()\r\n    public\r\n    onlyOwner()\r\n  {\r\n    PausableToken(address(token)).pause();\r\n  }\r\n\r\n  /*\r\n    owner DAO can unpause Token\r\n    only through contract DAO\r\n  */\r\n\r\n  function unpauseDAO()\r\n    public\r\n    onlyOwner()\r\n  {\r\n    PausableToken(address(token)).unpause();\r\n  }\r\n}\r\n",
  "sourcePath": "C:\\Users\\Ruslan\\Desktop\\COT-Tokens-DAO3L\\contracts\\COTDAO.sol",
  "compiler": {
    "name": "solc",
    "version": "0.4.24+commit.e67f0147.Emscripten.clang"
  },
  "schemaVersion": "2.0.1",
  "updatedAt": "2018-10-12T14:38:04.144Z"
}