{
  "contractName": "MintNewTokens",
  "abi": [
    {
      "constant": false,
      "inputs": [],
      "name": "renounceOwnership",
      "outputs": [],
      "payable": false,
      "stateMutability": "nonpayable",
      "type": "function"
    },
    {
      "constant": true,
      "inputs": [],
      "name": "owner",
      "outputs": [
        {
          "name": "",
          "type": "address"
        }
      ],
      "payable": false,
      "stateMutability": "view",
      "type": "function"
    },
    {
      "constant": false,
      "inputs": [
        {
          "name": "_newOwner",
          "type": "address"
        }
      ],
      "name": "transferOwnership",
      "outputs": [],
      "payable": false,
      "stateMutability": "nonpayable",
      "type": "function"
    },
    {
      "inputs": [
        {
          "name": "_token",
          "type": "address"
        },
        {
          "name": "_totalSupplyHalf",
          "type": "uint256"
        },
        {
          "name": "_limit",
          "type": "uint256"
        },
        {
          "name": "_openingTime",
          "type": "uint256"
        }
      ],
      "payable": false,
      "stateMutability": "nonpayable",
      "type": "constructor"
    },
    {
      "anonymous": false,
      "inputs": [
        {
          "indexed": true,
          "name": "previousOwner",
          "type": "address"
        }
      ],
      "name": "OwnershipRenounced",
      "type": "event"
    },
    {
      "anonymous": false,
      "inputs": [
        {
          "indexed": true,
          "name": "previousOwner",
          "type": "address"
        },
        {
          "indexed": true,
          "name": "newOwner",
          "type": "address"
        }
      ],
      "name": "OwnershipTransferred",
      "type": "event"
    },
    {
      "constant": false,
      "inputs": [
        {
          "name": "_beneficiary",
          "type": "address"
        },
        {
          "name": "_tokenAmount",
          "type": "uint256"
        }
      ],
      "name": "MintLimit",
      "outputs": [],
      "payable": false,
      "stateMutability": "nonpayable",
      "type": "function"
    },
    {
      "constant": false,
      "inputs": [
        {
          "name": "_beneficiary",
          "type": "address"
        }
      ],
      "name": "MintPercent",
      "outputs": [],
      "payable": false,
      "stateMutability": "nonpayable",
      "type": "function"
    }
  ],
  "bytecode": "0x608060405234801561001057600080fd5b506040516080806106b7833981016040908152815160208301519183015160609093015160008054600160a060020a03191633179055909290600160a060020a038416151561005e57600080fd5b60018054600160a060020a031916600160a060020a03959095169490941790935560029190915560035560045561061d8061009a6000396000f3006080604052600436106100535763ffffffff60e060020a600035041663715018a68114610058578063788d25561461006f5780638da5cb5b14610093578063992f4190146100c4578063f2fde38b146100e5575b600080fd5b34801561006457600080fd5b5061006d610106565b005b34801561007b57600080fd5b5061006d600160a060020a0360043516602435610172565b34801561009f57600080fd5b506100a8610373565b60408051600160a060020a039092168252519081900360200190f35b3480156100d057600080fd5b5061006d600160a060020a0360043516610382565b3480156100f157600080fd5b5061006d600160a060020a0360043516610503565b600054600160a060020a0316331461011d57600080fd5b60008054604051600160a060020a03909116917ff8df31144d9c2f0f6b59d69b8b98abd5459d07f2742c4df920b25aae33c6482091a26000805473ffffffffffffffffffffffffffffffffffffffff19169055565b600054600160a060020a0316331461018957600080fd5b600354600160009054906101000a9004600160a060020a0316600160a060020a03166318160ddd6040518163ffffffff1660e060020a028152600401602060405180830381600087803b1580156101df57600080fd5b505af11580156101f3573d6000803e3d6000fd5b505050506040513d602081101561020957600080fd5b50511061021557600080fd5b600354600154604080517f18160ddd00000000000000000000000000000000000000000000000000000000815290516102b292600160a060020a0316916318160ddd9160048083019260209291908290030181600087803b15801561027957600080fd5b505af115801561028d573d6000803e3d6000fd5b505050506040513d60208110156102a357600080fd5b5051839063ffffffff61052316565b11156102bc575060005b600081116102c957600080fd5b600154604080517f40c10f19000000000000000000000000000000000000000000000000000000008152600160a060020a03858116600483015260248201859052915191909216916340c10f199160448083019260209291908290030181600087803b15801561033857600080fd5b505af115801561034c573d6000803e3d6000fd5b505050506040513d602081101561036257600080fd5b5051151561036f57600080fd5b5050565b600054600160a060020a031681565b600054600160a060020a0316331461039957600080fd5b6004544210156103a857600080fd5b6103ba4261012c63ffffffff61052316565b6004908155600154604080517f18160ddd0000000000000000000000000000000000000000000000000000000081529051600160a060020a03909216926340c10f199285926104779260059261046b9260649289926318160ddd9280830192602092918290030181600087803b15801561043357600080fd5b505af1158015610447573d6000803e3d6000fd5b505050506040513d602081101561045d57600080fd5b50519063ffffffff61053616565b9063ffffffff61054b16565b6040518363ffffffff1660e060020a0281526004018083600160a060020a0316600160a060020a0316815260200182815260200192505050602060405180830381600087803b1580156104c957600080fd5b505af11580156104dd573d6000803e3d6000fd5b505050506040513d60208110156104f357600080fd5b5051151561050057600080fd5b50565b600054600160a060020a0316331461051a57600080fd5b61050081610574565b8181018281101561053057fe5b92915050565b6000818381151561054357fe5b049392505050565b600082151561055c57506000610530565b5081810281838281151561056c57fe5b041461053057fe5b600160a060020a038116151561058957600080fd5b60008054604051600160a060020a03808516939216917f8be0079c531659141344cd1fd0a4f28419497f9722a3daafe3b4186f6b6457e091a36000805473ffffffffffffffffffffffffffffffffffffffff1916600160a060020a03929092169190911790555600a165627a7a72305820c45a89edaef7c5622db7afd901614235fddd8378a41abc849ef34a22872f2d0f0029",
  "source": "/*\r\nTODO\r\n1. Transfer Tokens through Vesting contract\r\n\r\n2. Thinking how to implement 51% voiting (if pool address not a good decision)\r\n   it`s need because only this contract can call mint function\r\n   so we need think in advance.\r\n*/\r\n\r\npragma solidity ^0.4.24;\r\n\r\nimport \"openzeppelin-solidity/contracts/token/ERC20/ERC20.sol\";\r\nimport \"openzeppelin-solidity/contracts/token/ERC20/MintableToken.sol\";\r\nimport \"openzeppelin-solidity/contracts/token/ERC20/SafeERC20.sol\";\r\nimport \"openzeppelin-solidity/contracts/ownership/Ownable.sol\";\r\nimport \"openzeppelin-solidity/contracts/math/SafeMath.sol\";\r\n\r\ncontract MintNewTokens is Ownable{\r\n  using SafeERC20 for ERC20;\r\n  using SafeMath for uint256;\r\n\r\n  ERC20 private token;\r\n  uint256 private totalSupplyHalf;\r\n  uint256 private limit;\r\n  uint256 private openingTime;\r\n\r\n  constructor(\r\n    ERC20 _token,\r\n    uint256 _totalSupplyHalf,\r\n    uint256 _limit,\r\n    uint256 _openingTime\r\n    )\r\n    public {\r\n    require(_token != address(0));\r\n    token = _token;\r\n    totalSupplyHalf = _totalSupplyHalf;\r\n    limit = _limit;\r\n    openingTime = _openingTime;\r\n  }\r\n\r\n  modifier onlyWhenOpen {\r\n    require(block.timestamp >= openingTime);\r\n    _;\r\n  }\r\n\r\n /*\r\n    Owner can mint new Tokens up to a certain limit\r\n    Limit set in migrations\r\n */\r\n  function MintLimit(\r\n    address _beneficiary,\r\n    uint256 _tokenAmount\r\n  )\r\n    public\r\n  onlyOwner()\r\n  {\r\n  require(token.totalSupply() < limit);\r\n\r\n  if(_tokenAmount.add(token.totalSupply()) > limit ){\r\n    _tokenAmount = 0;\r\n  }\r\n  require(_tokenAmount > 0);\r\n  // Potentially dangerous assumption about the type of the token.\r\n  require(MintableToken(address(token)).mint(_beneficiary, _tokenAmount));\r\n  }\r\n\r\n  /*\r\n    Owner can mint 5% from totalSuply once a year (minute for test)\r\n  */\r\n  function MintPercent(\r\n    address _beneficiary\r\n  )\r\n    public\r\n    onlyOwner()\r\n    onlyWhenOpen()\r\n  {\r\n  // Update time\r\n  openingTime = now.add(5 minutes);\r\n\r\n  // Potentially dangerous assumption about the type of the token.\r\n  require(MintableToken(address(token)).mint(_beneficiary, token.totalSupply().div(100).mul(5)));\r\n  }\r\n\r\n\r\n  /*\r\n  Pool address with 51% balance can call mint function\r\n  require(pool_address > totalSupply / 2)\r\n  */\r\n\r\n  /* function MintForPoolAddress(\r\n    address _beneficiary,\r\n    uint256 _tokenAmount\r\n  )\r\n    public\r\n  {\r\n  require(token.balanceOf(msg.sender) > totalSupplyHalf);\r\n    // Potentially dangerous assumption about the type of the token.\r\n  require(MintableToken(address(token)).mint(_beneficiary, _tokenAmount));\r\n  } */\r\n}\r\n",
  "sourcePath": "C:\\Users\\Ruslan\\Desktop\\VESTEDMINTLIMITPERCENT\\contracts\\MintNewTokens.sol",
  "compiler": {
    "name": "solc",
    "version": "0.4.24+commit.e67f0147.Emscripten.clang"
  },
  "schemaVersion": "2.0.1",
  "updatedAt": "2018-10-05T08:41:25.028Z"
}